:020000040800F2
:1000000000C0002019600008BB5F0008BD5F000849
:10001000BF5F0008C15F0008C35F00080000000068
:10002000000000000000000000000000C55F0008A4
:10003000C75F000800000000C95F0008CB5F000830
:10004000616000086160000861600008616000088C
:10005000616000086160000861600008616000087C
:10006000616000086160000861600008C952000812
:100070006160000861600008F95F0008096000081D
:10008000616000086160000861600008616000084C
:10009000616000086160000861600008616000083C
:1000A000616000086160000861600008616000082C
:1000B000616000086160000861600008D95F0008A5
:1000C000E95F000861600008616000086160000885
:1000D00061600008616000086160000861600008FC
:1000E00061600008616000086160000861600008EC
:1000F00061600008616000086160000861600008DC
:1001000061600008616000086160000861600008CB
:1001100061600008616000086160000861600008BB
:1001200061600008616000086160000861600008AB
:1001300000000000000000000000000000000000BF
:1001400000000000000000000000000000000000AF
:10015000000000000000000000000000000000009F
:10016000000000000000000000000000000000008F
:10017000000000000000000000000000000000007F
:10018000000000000000000000000000000000006F
:10019000000000000000000000000000000000005F
:1001A000000000000000000000000000000000004F
:1001B000000000000000000000000000000000003F
:1001C000000000000000000000000000000000002F
:1001D000000000000000000000000000000000001F
:0401E0005FF8E0F1F3
:1001E80010B5054C237833B9044B13B10448AFF369
:1001F80000800123237010BD44000020000000008F
:10020800C460000808B5034B1BB103490348AFF3AA
:10021800008008BD0000000048000020C4600008FD
:1002280081F0004102E000BF83F0004330B54FEA9F
:1002380041044FEA430594EA050F08BF90EA020F0C
:100248001FBF54EA000C55EA020C7FEA645C7FEA9F
:10025800655C00F0E2804FEA5454D4EB5555B8BFC2
:100268006D420CDD2C4480EA020281EA030382EA33
:10027800000083EA010180EA020281EA0303362DC5
:1002880088BF30BD11F0004F4FEA01314FF4801C98
:100298004CEA113102D0404261EB410113F0004FAA
:1002A8004FEA03334CEA133302D0524263EB430361
:1002B80094EA050F00F0A780A4F10104D5F1200EFF
:1002C8000DDB02FA0EFC22FA05F2801841F100015A
:1002D80003FA0EF2801843FA05F359410EE0A5F12E
:1002E80020050EF1200E012A03FA0EFC28BF4CF05F
:1002F800020C43FA05F3C01851EBE37101F0004515
:1003080007D54FF0000EDCF1000C7EEB00006EEB21
:100318000101B1F5801F1BD3B1F5001F0CD34908AB
:100328005FEA30004FEA3C0C04F101044FEA445202
:1003380012F5800F80F09A80BCF1004F08BF5FEA89
:10034800500C50F1000041EB045141EA050130BD69
:100358005FEA4C0C404141EB010111F4801FA4F10C
:100368000104E9D191F0000F04BF01460020B1FA61
:1003780081F308BF2033A3F10B03B3F120020CDA99
:100388000C3208DD02F1140CC2F10C0201FA0CF077
:1003980021FA02F10CE002F11402D8BFC2F1200CDC
:1003A80001FA02F120FA0CFCDCBF41EA0C01904092
:1003B800E41AA2BF01EB0451294330BD6FEA0404DB
:1003C8001F3C1CDA0C340EDC04F11404C4F12002C6
:1003D80020FA04F001FA02F340EA030021FA04F3D8
:1003E80045EA030130BDC4F10C04C4F1200220FA2F
:1003F80002F001FA04F340EA0300294630BD21FA6D
:1004080004F0294630BD94F0000F83F4801306BF32
:1004180081F480110134013D4EE77FEA645C18BF26
:100428007FEA655C29D094EA050F08BF90EA020FBD
:1004380005D054EA000C04BF1946104630BD91EAB5
:10044800030F1EBF0021002030BD5FEA545C05D1B8
:100458004000494128BF41F0004130BD14F58004F7
:100468003CBF01F5801130BD01F0004545F0FE416B
:1004780041F470014FF0000030BD7FEA645C1ABFA0
:10048800194610467FEA655C1CBF0B46024650EAD7
:10049800013406BF52EA033591EA030F41F4002103
:1004A80030BD00BF90F0000F04BF0021704730B589
:1004B8004FF4806404F132044FF000054FF000015E
:1004C80050E700BF90F0000F04BF0021704730B51F
:1004D8004FF4806404F1320410F0004548BF4042F4
:1004E8004FF000013EE700BF42004FEAE2014FEA49
:1004F80031014FEA02701FBF12F07F4393F07F4F24
:1005080081F06051704732F07F4208BF704793F026
:100518007F4F04BF41F40021704730B54FF4607439
:1005280001F0004521F000411CE700BF50EA01023C
:1005380008BF704730B54FF000050AE050EA0102E5
:1005480008BF704730B511F0004502D5404261EB55
:1005580041014FF4806404F132045FEA915C3FF496
:10056800D8AE4FF003025FEADC0C18BF03325FEA33
:10057800DC0C18BF033202EBDC02C2F1200300FAE4
:1005880003FC20FA02F001FA03FE40EA0E0021FA09
:1005980002F11444BDE600BF70B54FF0FF0C4CF4F7
:1005A800E06C1CEA11541DBF1CEA135594EA0C0FA9
:1005B80095EA0C0F00F0DEF82C4481EA030621EAE4
:1005C8004C5123EA4C5350EA013518BF52EA03351F
:1005D80041F4801143F4801338D0A0FB02CE4FF0D1
:1005E8000005E1FB02E506F00042E0FB03E54FF001
:1005F8000006E1FB03569CF0000F18BF4EF0010EF9
:10060800A4F1FF04B6F5007F64F5407404D25FEAF4
:100618004E0E6D4146EB060642EAC62141EA5551A7
:100628004FEAC52040EA5E504FEACE2EB4F1FD0CE9
:1006380088BFBCF5E06F1ED8BEF1004F08BF5FEA67
:10064800500E50F1000041EB045170BD06F0004619
:1006580046EA010140EA020081EA0301B4EB5C04C6
:10066800C2BFD4EB0C0541EA045170BD41F48011BE
:100678004FF0000E013C00F3AB8014F1360FDEBFE3
:10068800002001F0004170BDC4F10004203C35DABF
:100698000C341BDC04F11404C4F1200500FA05F342
:1006A80020FA04F001FA05F240EA020001F00042E3
:1006B80021F0004110EBD37021FA04F642EB060159
:1006C8005EEA430E08BF20EAD37070BDC4F10C0483
:1006D800C4F1200500FA04F320FA05F001FA04F247
:1006E80040EA020001F0004110EBD37041F1000133
:1006F8005EEA430E08BF20EAD37070BDC4F120053E
:1007080000FA05F24EEA020E20FA04F301FA05F2A5
:1007180043EA020321FA04F001F0004121FA04F24D
:1007280020EA020000EBD3705EEA430E08BF20EA1D
:10073800D37070BD94F0000F0FD101F00046400057
:1007480041EB010111F4801F08BF013CF7D041EAD9
:10075800060195F0000F18BF704703F000465200DD
:1007680043EB030313F4801F08BF013DF7D043EAAE
:100778000603704794EA0C0F0CEA135518BF95EA64
:100788000C0F0CD050EA410618BF52EA4306D1D1EB
:1007980081EA030101F000414FF0000070BD50EA0A
:1007A800410606BF1046194652EA430619D094EA94
:1007B8000C0F02D150EA013613D195EA0C0F05D17E
:1007C80052EA03361CBF104619460AD181EA0301D2
:1007D80001F0004141F0FE4141F470014FF000008A
:1007E80070BD41F0FE4141F4780170BD70B54FF025
:1007F800FF0C4CF4E06C1CEA11541DBF1CEA1355A5
:1008080094EA0C0F95EA0C0F00F0A7F8A4EB050486
:1008180081EA030E52EA03354FEA013100F088807D
:100828004FEA03334FF0805545EA131343EA126346
:100838004FEA022245EA111545EA10654FEA0026FB
:100848000EF000419D4208BF964244F1FD0404F5B4
:10085800407402D25B084FEA3202B61A65EB030510
:100868005B084FEA32024FF480104FF4002CB6EBCD
:10087800020E75EB030E22BFB61A754640EA0C004D
:100888005B084FEA3202B6EB020E75EB030E22BF8D
:10089800B61A754640EA5C005B084FEA3202B6EBCE
:1008A800020E75EB030E22BFB61A754640EA9C008D
:1008B8005B084FEA3202B6EB020E75EB030E22BF5D
:1008C800B61A754640EADC0055EA060E18D04FEA1B
:1008D800051545EA16754FEA06164FEAC30343EABB
:1008E80052734FEAC2025FEA1C1CC0D111F4801F88
:1008F8000BD141EA00014FF000004FF0004CB6E781
:1009080011F4801F04BF01430020B4F1FD0C88BF1F
:10091800BCF5E06F3FF6AFAEB5EB030C04BFB6EB2A
:10092800020C5FEA500C50F1000041EB045170BD1D
:100938000EF0004E4EEA113114EB5C04C2BFD4EB4A
:100948000C0541EA045170BD41F480114FF0000ECE
:10095800013C90E645EA060E8DE60CEA135594EA4A
:100968000C0F08BF95EA0C0F3FF43BAF94EA0C0F4D
:100978000AD150EA01347FF434AF95EA0C0F7FF4C2
:1009880025AF104619462CE795EA0C0F06D152EA16
:1009980003353FF4FDAE1046194622E750EA4106FA
:1009A80018BF52EA43067FF4C5AE50EA41047FF40B
:1009B8000DAF52EA43057FF4EBAE12E74FF0FF3C70
:1009C80006E000BF4FF0010C02E000BF4FF0010C41
:1009D8004DF804CD4FEA410C7FEA6C5C4FEA430CBA
:1009E80018BF7FEA6C5C1BD001B050EA410C0CBF09
:1009F80052EA430C91EA030F02BF90EA020F00206B
:100A0800704710F1000F91EA030F58BF994208BFD1
:100A180090422CBFD8176FEAE37040F0010070478E
:100A28004FEA410C7FEA6C5C02D150EA013C07D1E5
:100A38004FEA430C7FEA6C5CD6D152EA033CD3D030
:100A48005DF8040B704700BF8446104662468C462A
:100A58001946634600E000BF01B5FFF7B7FF00285D
:100A680048BF10F1000F01BD4DF808EDFFF7F4FF86
:100A78000CBF012000205DF808FB00BF4DF808ED11
:100A8800FFF7EAFF34BF012000205DF808FB00BF34
:100A98004DF808EDFFF7E0FF94BF012000205DF856
:100AA80008FB00BF4DF808EDFFF7CEFF94BF01200B
:100AB80000205DF808FB00BF4DF808EDFFF7C4FF04
:100AC80034BF012000205DF808FB00BF4FEA410257
:100AD80012F5001215D211D56FF47873B3EB625288
:100AE80012D94FEAC12343F0004343EA505311F0AF
:100AF800004F23FA02F018BF404270474FF0000041
:100B0800704750EA013005D111F0004008BF6FF07E
:100B1800004070474FF00000704700BF4A0011D2F4
:100B280012F5001211D20DD56FF47873B3EB62523F
:100B38000ED44FEAC12343F0004343EA505323FA4B
:100B480002F070474FF00000704750EA013002D1C0
:100B58004FF0FF3070474FF0000070474FEA4102F6
:100B6800B2F1E04324BFB3F5001CDCF1FE5C0DD903
:100B780001F0004C4FEAC0024CEA5070B2F1004F4D
:100B880040EB830008BF20F00100704711F0804F50
:100B980021D113F13872BCBF01F00040704741F415
:100BA80080114FEA5252C2F11802C2F1200C10FA19
:100BB8000CF320FA02F018BF40F001004FEAC123FD
:100BC8004FEAD32303FA0CFC40EA0C0023FA02F3A1
:100BD8004FEA4303CCE77FEA625307D150EA013377
:100BE8001EBF4FF0FE4040F44000704701F0004047
:100BF80040F0FE4040F40000704700BF80F0004025
:100C080002E000BF81F0004142001FBF5FEA4103DC
:100C180092EA030F7FEA226C7FEA236C6AD04FEADC
:100C28001262D2EB1363C1BFD21841404840414021
:100C3800B8BF5B42192B88BF704710F0004F40F4D3
:100C4800000020F07F4018BF404211F0004F41F4EF
:100C5800000121F07F4118BF494292EA030F3FD0BB
:100C6800A2F1010241FA03FC10EB0C00C3F12003CE
:100C780001FA03F100F0004302D5494260EB40005D
:100C8800B0F5000F13D3B0F1807F06D340084FEAC8
:100C9800310102F10102FE2A51D2B1F1004F40EBBD
:100CA800C25008BF20F0010040EA03007047490025
:100CB80040EB000010F4000FA2F10102EDD1B0FAF0
:100CC80080FCACF1080CB2EB0C0200FA0CF0AABFE5
:100CD80000EBC25052421843BCBFD0401843704783
:100CE80092F0000F81F4000106BF80F40000013289
:100CF800013BB5E74FEA41037FEA226C18BF7FEA60
:100D0800236C21D092EA030F04D092F0000F08BFA1
:100D18000846704790EA010F1CBF0020704712F088
:100D28007F4F04D1400028BF40F00040704712F1C7
:100D380000723CBF00F50000704700F0004343F02C
:100D4800FE4040F4000070477FEA226216BF084662
:100D58007FEA23630146420206BF5FEA412390EA25
:100D6800010F40F4800070474FF0000304E000BF1B
:100D780010F0004348BF40425FEA000C08BF7047CC
:100D880043F0964301464FF000001CE050EA010290
:100D980008BF70474FF000030AE000BF50EA0102A5
:100DA80008BF704711F0004302D5404261EB410192
:100DB8005FEA010C02BF84460146002043F0B643B7
:100DC80008BFA3F18053A3F50003BCFA8CF2083ADC
:100DD800A3EBC25310DB01FA02FC634400FA02FCE5
:100DE800C2F12002BCF1004F20FA02F243EB0200EC
:100DF80008BF20F00100704702F1200201FA02FC4E
:100E0800C2F1200250EA4C0021FA02F243EB020040
:100E180008BF20EADC7070474FF0FF0C1CEAD05284
:100E28001EBF1CEAD15392EA0C0F93EA0C0F6FD045
:100E38001A4480EA010C400218BF5FEA41211ED023
:100E48004FF0006343EA501043EA5111A0FB01310F
:100E58000CF00040B1F5000F3EBF490041EAD371E4
:100E68005B0040EA010062F17F02FD2A1DD8B3F160
:100E7800004F40EBC25008BF20F00100704790F0CF
:100E8800000F0CF0004C08BF49024CEA502040EA21
:100E980051207F3AC2BFD2F1FF0340EAC2507047E7
:100EA80040F400004FF00003013A5DDC12F1190F25
:100EB800DCBF00F000407047C2F10002410021FA97
:100EC80002F1C2F1200200FA02FC5FEA310040F1AF
:100ED800000053EA4C0308BF20EADC70704792F028
:100EE800000F00F0004C02BF400010F4000F013A60
:100EF800F9D040EA0C0093F0000F01F0004C02BF5B
:100F0800490011F4000F013BF9D041EA0C018FE7C9
:100F18000CEAD15392EA0C0F18BF93EA0C0F0AD0CF
:100F280030F0004C18BF31F0004CD8D180EA0100F5
:100F380000F00040704790F0000F17BF90F0004F8E
:100F4800084691F0000F91F0004F14D092EA0C0F70
:100F580001D142020FD193EA0C0F03D14B0218BF03
:100F6800084608D180EA010000F0004040F0FE4049
:100F780040F40000704740F0FE4040F440007047E5
:100F88004FF0FF0C1CEAD0521EBF1CEAD15392EA64
:100F98000C0F93EA0C0F69D0A2EB030280EA010C54
:100FA80049024FEA402037D04FF0805343EA1111ED
:100FB80043EA10130CF000408B4238BF5B0042F14B
:100FC8007D024FF4000C8B4224BF5B1A40EA0C00F0
:100FD800B3EB510F24BFA3EB510340EA5C00B3EB22
:100FE800910F24BFA3EB910340EA9C00B3EBD10F10
:100FF80024BFA3EBD10340EADC001B0118BF5FEA62
:101008001C1CE0D1FD2A3FF650AF8B4240EBC2508A
:1010180008BF20F0010070470CF0004C4CEA50204B
:101028007F32C2BFD2F1FF0340EAC250704740F49A
:1010380000004FF00003013A37E792F0000F00F08C
:10104800004C02BF400010F4000F013AF9D040EA0A
:101058000C0093F0000F01F0004C02BF490011F49E
:10106800000F013BF9D041EA0C0195E70CEAD15396
:1010780092EA0C0F08D142027FF47DAF93EA0C0F7D
:101088007FF470AF084676E793EA0C0F04D14B0261
:101098003FF44CAF08466EE730F0004C18BF31F013
:1010A800004CCAD130F000427FF45CAF31F000430D
:1010B8007FF43CAF5FE700BF4FF0FF3C06E000BFA6
:1010C8004FF0010C02E000BF4FF0010C4DF804CDC9
:1010D8004FEA40024FEA41037FEA226C18BF7FEAD9
:1010E800236C11D001B052EA530C18BF90EA010FDB
:1010F80058BFB2EB030088BFC81738BF6FEAE1706A
:1011080018BF40F0010070477FEA226C02D15FEA05
:10111800402C05D17FEA236CE4D15FEA412CE1D071
:101128005DF8040B704700BF844608466146FFE738
:101138000FB5FFF7C9FF002848BF10F1000F0FBD1A
:101148004DF808EDFFF7F4FF0CBF012000205DF813
:1011580008FB00BF4DF808EDFFF7EAFF34BF012098
:1011680000205DF808FB00BF4DF808EDFFF7E0FF31
:1011780094BF012000205DF808FB00BF4DF808ED82
:10118800FFF7D2FF94BF012000205DF808FB00BFE5
:101198004DF808EDFFF7C8FF34BF012000205DF8C7
:1011A80008FB00BF4FEA4002B2F1FE4F0FD34FF0E9
:1011B8009E03B3EB12620DD94FEA002343F00043BC
:1011C80010F0004F23FA02F018BF404270474FF06A
:1011D8000000704712F1610F01D1420205D110F0F1
:1011E800004008BF6FF0004070474FF000007047A4
:1011F80082B0084B1B68084AA2FB03235B0A00FB6A
:1012080003F0019000BF019B5A1E0192002BF9D1F7
:1012180002B0704700000020D34D621070B582B054
:101228000446036813F0010F2CD0AB4B5B6803F046
:101238000C03042B1DD0A84B5B6803F00C03082B90
:1012480012D06368B3F5803F41D0002B55D103F12C
:10125800804303F504331A6822F480321A601A684E
:1012680022F480221A6037E09B4B5B6813F4803FBE
:10127800E7D0994B1B6813F4003F03D06368002B39
:1012880000F0AE81236813F0020F76D0924B5B68B2
:1012980013F00C0F5FD0904B5B6803F00C03082B26
:1012A80054D02369002B00F08A808C4B01221A60ED
:1012B80000F0E8FF0546884B1B6813F0020F75D154
:1012C80000F0E0FF401B0228F5D903208BE1824A99
:1012D800136843F480331360636843B300F0D2FFAC
:1012E80005467D4B1B6813F4003FCBD100F0CAFFC5
:1012F800401B6428F5D9032075E1B3F5A02F09D068
:10130800754B1A6822F480321A601A6822F4802217
:101318001A60E1E703F18043A3F53C331A6842F40D
:1013280080221A601A6842F480321A60D4E700F00A
:10133800A9FF0546684B1B6813F4003FA2D000F0D4
:10134800A1FF401B6428F5D903204CE1624B5B6880
:1013580013F4803FA5D1604B1B6813F0020F04D033
:101368002369012B01D001203DE15B4A136823F07A
:10137800F803616943EAC1031360236813F0080F97
:1013880032D0A369002B5BD0554B01221A6000F0C4
:1013980079FF0546504B5B6A13F0020F21D100F02C
:1013A80071FF401B0228F5D903201CE14A4A136843
:1013B80023F0F803616943EAC1031360DDE7474B93
:1013C80000221A6000F05EFF0546434B1B6813F0CD
:1013D800020FD2D000F056FF401B0228F5D9032097
:1013E80001E10120FFF704FF236813F0040F00F068
:1013F8009780394BDB6913F0805F33D1364BDA695C
:1014080042F08052DA61DB6903F080530193019B5B
:101418000125344B1B6813F4807F25D0E368012B2A
:1014280036D0002B4CD103F1804303F504331A6AFC
:1014380022F001021A621A6A22F004021A622CE0EF
:10144800274B00221A6000F01DFF0546224B5B6AFD
:1014580013F0020FC8D000F015FF401B0228F5D981
:101468000320C0E00025D4E71E4A136843F48073C4
:10147800136000F007FF06461A4B1B6813F4807FC1
:10148800CCD100F0FFFE801B6428F5D90320AAE028
:10149800114A136A43F001031362E36873B300F05F
:1014A800F1FE06460C4B1B6A13F0020F37D100F011
:1014B800E9FE801B41F288339842F3D9032092E079
:1014C800052B11D0044B1A6A22F001021A621A6A1B
:1014D80022F004021A62E0E70010024000004242D3
:1014E8008004424200700040414B1A6A42F00402F4
:1014F8001A621A6A42F001021A62CEE700F0C2FECE
:1015080006463B4B1B6A13F0020F08D000F0BAFEE8
:10151800801B41F288339842F3D9032063E0E5B990
:10152800E369002B5ED0324A526802F00C02082AA6
:101538005BD0022B17D02F4B00221A6000F0A2FEBE
:1015480004462B4B1B6813F0007F47D000F09AFE2F
:10155800001B0228F5D9032045E0254AD36923F06A
:101568008053D361DCE7234B00221A6000F08AFE27
:1015780005461F4B1B6813F0007F06D000F082FE63
:10158800401B0228F5D903202DE0236AB3F5803FDC
:101598001AD017494B6823F47413226A606A02430D
:1015A80013434B60134B01221A6000F06BFE044694
:1015B8000F4B1B6813F0007F0ED100F063FE001B79
:1015C8000228F5D903200EE0094A536823F40033B2
:1015D800A1680B435360DCE7002004E0002002E030
:1015E800012000E0002002B070BD0120FBE700BF31
:1015F800001002406000424210B487B0164C94E8D4
:101608000F000DF1180C0CE90F00238AADF8043017
:10161800124B5B6803F00C02082A1AD1C3F3834209
:10162800624412F8100C13F4803F05D10C4B03FBF5
:1016380000F007B010BC7047084B5B68C3F3404329
:10164800634413F8142C074BB3FBF2F300FB03F0CD
:10165800EFE70448EDE700BFDC6000080010024037
:1016680000093D0000127A00594B1B6803F007037C
:101678008B420CD2564A136823F007030B431360BE
:10168800136803F007038B4201D00120704770B53F
:10169800036813F0020F06D04E4A536823F0F00394
:1016A8008468234353600C460546036813F0010F12
:1016B80052D04368012B23D0022B28D0454A126808
:1016C80012F0020F00F0828042494A6822F00302B9
:1016D80013434B6000F0D6FD06466B68012B1DD006
:1016E800022B2AD03B4B5B6813F00C0F34D000F070
:1016F800C9FD801B41F288339842F3D9032064E086
:10170800344A126812F4003FDED101205DE0314A0C
:10171800126812F0007FD7D1012056E02D4B5B688C
:1017280003F00C03042B17D000F0ACFD801B41F232
:1017380088339842F2D9032047E0264B5B6803F0D0
:101748000C03082B08D000F09DFD801B41F2883364
:101758009842F2D9032038E01D4B1B6803F00703B9
:10176800A3420CD91A4A136823F0070323431360D2
:10177800136803F00703A34201D0012025E02B687A
:1017880013F0040F06D0134A536823F4E063E968A2
:101798000B4353602B6813F0080F07D00D4A5368AA
:1017A80023F46053296943EAC1035360FFF724FF18
:1017B800084B5B68C3F30313074AD35CD840074B55
:1017C8001860002000F02EFD002070BD0120FCE70D
:1017D80000200240001002400061000800000020C4
:1017E800014B1868704700BF0000002008B5FFF7DC
:1017F800F7FF044B5B68C3F30223034AD35CD8406A
:1018080008BD00BF001002401061000830B4036A30
:1018180023F001030362056A4268846924F07304B3
:101828000B681C4325F002058B682B43104DA8421A
:1018380003D005F50065A84205D123F00803CD685B
:101848002B4323F004030A4DA84203D005F5006595
:10185800A84205D122F440724D6915438A692A438A
:10186800426084614A684263036230BC704700BFCB
:10187800002C014030B4036A23F480730362036AC6
:101888004268C46924F073040D682C4323F4007380
:101898008D6843EA0523124DA84203D005F500657B
:1018A800A84206D123F40063CD6843EA052323F454
:1018B80080630B4DA84203D005F50065A84207D107
:1018C80022F440524D6942EA05128D6942EA051236
:1018D8004260C4614A68C263036230BC704700BF9B
:1018E800002C014030B4036A23F480530362036A76
:1018F8004468C26922F4E6420D6842EA052223F4EC
:1019080000538D6843EA0533094DA84203D005F515
:101918000065A84204D124F480444D6944EA851442
:101928004460C2614A680264036230BC704700BF09
:10193800002C014010B4036A046A24F00104046214
:10194800846924F0F00444EA021223F00A030B43EA
:101958008261036210BC704710B4036A23F010035D
:1019680003628469036A24F4704444EA023223F06F
:10197800A00343EA01138261036210BC704710B4EC
:10198800846824F47F4442EA03230B43234383609F
:1019980010BC704710B50468A26822F070024B684A
:1019A800134323F007030A681343A3604B68502BC3
:1019B8001ED00AD9602B21D0702B05D10B698A68FB
:1019C800C9680068FFF7DBFF10BD402BFCD1036836
:1019D8001C6A1A6A22F001021A620268936923F0EB
:1019E800F003096943EA0113936103681C62EBE79A
:1019F8000A6989680068FFF79DFFE5E70A69896851
:101A08000068FFF7A9FFDFE7704738B590F83C306A
:101A1800012B18D00446012580F83C50022380F899
:101A28003D30FFF7B7FF2268D36823F04003D36047
:101A38002268D36823F48043D36084F83D500020A3
:101A480084F83C0038BD0220FCE700000368244A03
:101A5800904212D002F5006290420ED0B0F1804F51
:101A68000BD0A2F59832904207D002F580629042DE
:101A780003D002F58062904203D123F070034A68D4
:101A88001343174A904212D002F5006290420ED0DA
:101A9800B0F1804F0BD0A2F59832904207D002F5F2
:101AA8008062904203D002F58062904203D123F411
:101AB8004073CA68134323F080034A6913430360E1
:101AC8008B68C3620B688362054B984203D003F5A9
:101AD8000063984201D10B69036301234361704796
:101AE800002C0140A8B110B5044690F83D305BB118
:101AF800022384F83D30211D2068FFF7A7FF01234A
:101B080084F83D30002010BD80F83C30FFF77CFFA2
:101B1800EEE701207047000030B4036A23F0100399
:101B28000362036A4468826922F4E6420D6842EA65
:101B3800052223F020038D6843EA0513114DA842BE
:101B480003D005F50065A84206D123F08003CD68CF
:101B580043EA051323F040030A4DA84203D005F5D4
:101B68000065A84207D124F440644D6944EA85041D
:101B78008D6944EA8504446082614A68826303622D
:101B880030BC7047002C014038B590F83C30012B30
:101B980066D00D460446012380F83C30022380F8C5
:101BA8003D300C2A1AD8DFE802F007191919201954
:101BB80019193419191947000068FFF727FE226818
:101BC800936943F0080393612268936923F004033F
:101BD80093612268936929690B439361012384F80F
:101BE8003D30002084F83C0038BD0068FFF794FFC2
:101BF8002268936943F4006393612268936923F42C
:101C08008063936122689369296943EA0123936198
:101C1800E4E70068FFF72EFE2268D36943F0080363
:101C2800D3612268D36923F00403D3612268D3699E
:101C380029690B43D361D1E70068FFF753FE226897
:101C4800D36943F40063D3612268D36923F48063C2
:101C5800D3612268D369296943EA0123D361BDE7C7
:101C68000220C1E710B4012303FA01F4036A23EA4E
:101C780004030362036A8A401343036210BC70477B
:101C880010B5044601220068FFF7ECFF2368094AF3
:101C9800934203D002F50062934203D15A6C42F496
:101CA80000425A642268136843F00103136000205D
:101CB80010BD00BF002C014010B4042303FA01F446
:101CC800036A23EA04030362036A8A401343036234
:101CD80010BC704710B5044604220068FFF7ECFFFB
:101CE8002268536C43F4004353642268136843F03A
:101CF80001031360002010BD90F83C30012B25D063
:101D0800012380F83C30CB6823F440738A6813437E
:101D180023F480634A68134323F400630A68134377
:101D280023F480530A69134323F400534A69134385
:101D380023F480438A69134323F40043134302685E
:101D48005364002380F83C301846704702207047DF
:101D580090F83C30012B22D030B4012280F83C208E
:101D6800022380F83D300468636823F070036360E1
:101D7800046863680D682B4363600468A36823F0F4
:101D88008003A3600468A36849680B43A36080F8D4
:101D98003D20002380F83C30184630BC70470220B4
:101DA80070470000034690F82420012A20D0012221
:101DB80080F824200268906810F0010F07D10D48C0
:101DC800806810F0010F02D10B48824208D09A6A4D
:101DD80042F020029A620120002283F824207047F2
:101DE800506820F470200968014351600020F3E72F
:101DF800022070470028014000240140074AD368A8
:101E080023F4E0631B041B0C000200F4E060184399
:101E180040F0BF6040F40030D060704700ED00E053
:101E280030B4174BDB68C3F30223C3F10704042C57
:101E380028BF04241D1D062D18D9033B4FF0FF357C
:101E480005FA04F421EA0401994005FA03F322EAA9
:101E58000303194300280BDB0901C9B200F16040F4
:101E680000F5614080F8001330BC70470023E5E7B7
:101E780000F00F000901C9B2024B1954F4E700BF82
:101E880000ED00E014ED00E000F01F02400901231E
:101E98009340024A42F82030704700BF00E100E05A
:101EA8000138B0F1807F0AD2064B5860064AF0210B
:101EB80082F823100020986007221A6070470120DA
:101EC800704700BF10E000E000ED00E0042805D0F6
:101ED800054A136823F0040313607047024A136825
:101EE80043F004031360704710E000E0704708B542
:101EF800FFF7FCFF08BD0000F0B482B000263546AD
:101F0800ABE0002C63D0012C00D1CE68FF2B72D837
:101F18008446FF2B72D8AC00DCF800200F27A740BE
:101F280022EA070206FA04F42243CCF800204A68A1
:101F380012F0805F00F09080654A946944F00104D3
:101F48009461926902F001020192019AAC08A71CFF
:101F5800604A52F827C005F0030297000F22BA40E2
:101F68002CEA020C5C4A90424ED002F58062904204
:101F780000F08B8002F58062904200F0888002F5C4
:101F88008062904200F0858002F58062904200F005
:101F9800828002F58062904234D0062235E04F4FAD
:101FA800BC4214D00BD94E4FBC4210D007F5803735
:101FB800BC420CD0A7F58017BC42A7D107E0A7F513
:101FC8008017BC4203D007F58037BC429ED18C688D
:101FD8007CB1012C08D04261082697E7CE68083604
:101FE80094E7CE680C3691E7026108268EE7002652
:101FF8008CE704268AE700F1040C8AE7A5F10804B7
:10200800A40089E7052200E00022BA4042EA0C0257
:102018000234304F47F824204A6812F4803F3CD0FD
:10202800304C22681A4322604A6812F4003F3AD0C2
:102038002C4C62681A4362604A6812F4801F38D0D8
:10204800284CA2681A43A2604A6812F4001F36D0CE
:10205800244CE2681343E36001350F2D35D8012283
:10206800AA400B6813409A42F6D14C68122CB8D09B
:1020780095D8022CB2D07FF644AF032CB7D0112CE0
:102088007FF444AFCE68043640E70122BDE7022260
:10209800BBE70322B9E70422B7E7124C226822EA19
:1020A80003022260C0E70F4C626822EA0302626002
:1020B800C2E70C4CA26822EA0302A260C4E7094CFA
:1020C800E26822EA0303E360C6E702B0F0BC7047A7
:1020D80000100240000001400008014000002110EB
:1020E80000003110000401408368194201D100202A
:1020F80070470120704712B90904016170470161F6
:102108007047C3685940C1607047000070B582B01D
:102118000446036813F0010F34D03E4BDB6913F01B
:10212800805F48D13B4BDA6942F08052DA61DB6963
:1021380003F080530193019B0125374B1B6813F46F
:10214800807F3AD0334B1B6A13F4407311D0626816
:1021580002F440729A420CD02E4A136A23F440705B
:102168002E4901260E6000260E60106213F0010F42
:1021780037D1284A136A23F4407361680B4313620A
:10218800002D3FD1236813F0020F06D0214A53686F
:1021980023F44043A1680B435360236813F0100FE6
:1021A80035D01C4A536823F4800361690B4353609C
:1021B800002002B070BD0025BFE7174A136843F43A
:1021C8008073136000F05EF80646134B1B6813F427
:1021D800807FB7D100F056F8801B6428F5D903201A
:1021E800E7E700F04FF806460A4B1B6A13F0020FA8
:1021F800BFD100F047F8801B41F288339842F3D9E9
:102208000320D6E7D36923F08053D361BAE70020CF
:10221800CFE700BF00100240007000404004424277
:102228007047000010B50446074B1868074BA3FB1E
:1022380000308009FFF734FE002221464FF0FF30BE
:10224800FFF7EEFD002010BD00000020D34D621006
:1022580008B5074A136843F0100313600320FFF71B
:10226800CDFD0020FFF7DEFFFFF7DAFF002008BDF5
:1022780000200240024A136801331360704700BF10
:102288009C000020014B1868704700BF9C0000208C
:1022980030B583B00190FFF7F5FF0546019CB4F116
:1022A800FF3F00D00134FFF7EDFF401BA042FAD3F7
:1022B80003B030BD7047000030B482B000230193F2
:1022C80090F82430012B00F08B800246012380F81F
:1022D80024304B68062B29D80568686B03EB830309
:1022E800053B1F249C4020EA04000C6804FA03F311
:1022F80003436B630B68092B38D91568E86803EB4F
:1023080043031E3B07249C4020EA04008C6804FA1F
:1023180003F30343EB600B68103B012B34D9002017
:10232800002382F8243002B030BC70470C2B0ED842
:102338000568286B03EB8303233B1F249C4020EA9A
:1023480004000C6804FA03F303432B63D2E705681F
:10235800E86A03EB8303413B1F249C4020EA040006
:102368000C6804FA03F30343EB62C3E715682869B2
:1023780003EB430307249C4020EA04008C6804FA1A
:1023880003F303432B61C6E713681648834205D05D
:10239800936A43F0200393620120C1E7986810F420
:1023A800000F1BD1986840F4000098600B68102B50
:1023B80001D00020B4E70C4B1B680C49A1FB0313A8
:1023C8009B0C03EB83035900019102E0019B013B45
:1023D8000193019B002BF9D10020A1E700209FE782
:1023E8000220A0E7002401400000002083DE1B43F8
:1023F80030B583B00023019303689A6812F0010F87
:102408002ED19A6842F001029A60174B1B68174A4E
:10241800A2FB03239B0C019302E0019B013B019368
:10242800019B002BF9D10446FFF72CFF05462368D2
:102438009B6813F0010F11D1FFF724FF401B0228FE
:10244800F5D9A36A43F01003A362E36A43F00103DA
:10245800E362002384F82430012002E0002000E039
:10246800002003B030BD00BF0000002083DE1B4306
:1024780090F82430012B6AD010B50446012380F867
:102488002430FFF7B5FF024600285BD1A36A23F486
:10249800407323F0010343F48073A36223682D493A
:1024A8008B4227D0A16A21F48011A162596811F4E6
:1024B800806F05D0A16A21F4405141F48051A16296
:1024C800A16A11F4805F2BD0E16A21F00601E16274
:1024D800002184F824106FF00201196023689968BC
:1024E80001F46021B1F5602F1DD0996841F4801185
:1024F80099602AE0A1F58061496811F4702FD1D064
:10250800A16A41F48011A1621349496811F4806FEE
:10251800D6D0A16A21F4405141F48051A162CFE79D
:102528000021E162D4E70B498B4204D0996841F459
:10253800A001996009E0A1F58061496811F4702F44
:10254800D3D1F3E7002384F82430104610BD0222CB
:1025580010467047002801400024014038B5036840
:102568009A6812F0010F01D1002038BD04469A681C
:1025780022F001029A60FFF785FE054623689B68F2
:1025880013F0010F0ED0FFF77DFE401B0228F5D98E
:10259800A36A43F01003A362E36A43F00103E36212
:1025A8000120E2E70020E0E7002800F08A8070B50B
:1025B8000446836A002B36D02046FFF7CFFFA36A74
:1025C80013F0100377D1002875D1A26A22F488523B
:1025D80022F0020242F00202A262626825683A49C9
:1025E8008D4226D0E1690A43E66842EA4602A168BC
:1025F800B1F5807F27D0012922D06169012925D032
:10260800696821F469410B436B6021688D682F4B21
:102618002B4013438B60A368B3F5807F27D0012B31
:1026280025D0002126E0C36280F82430FFF742FE5F
:10263800C2E7E169B1F5402FD5D14FF40021D2E7C7
:102648004FF48073D9E74FF48073D6E736B9A169A0
:10265800013943EA413343F40063D1E7A16A41F009
:102668002001A162E16A41F00101E162C8E7236942
:10267800013B19052568EB6A23F470030B43EB62F1
:1026880023689968124B0B409A420BD0A36A23F037
:10269800120343F01003A362E36A43F00103E36209
:1026A80001200DE00023E362A36A23F0030343F053
:1026B8000103A36204E0A36A43F01003A3620120AC
:1026C80070BD0120704700BF003C0140FDF7E1FFED
:1026D800FE0E1FFF90F83E30DBB2402B13D003698B
:1026E800B3F5804F1ED0036D002B2DD0036D012B49
:1026F80033D1436CC3F3C813026803F0060343F0F5
:10270800F103136129E0036D2BB9436C026803F0F0
:10271800FE03136121E0436C026843F00103DBB25E
:1027280013611AE090F83D30DBB2212B06D0436CE0
:10273800026843F00103DBB213610EE0436C0268E8
:1027480003F0FE03136108E0436CC3F3C813026887
:1027580003F0060343F0F003136100207047436C55
:102768000268DBB213610020704710B48DB090F896
:102778003E30DAB2C16A046B90F83D30DBB2222BEE
:102788000BD000230B9303685A690B929B690B9338
:102798000B9B00200DB010BC7047036D0BB9402A8D
:1027A80017D0036D1BB90369B3F5404F19D0438D9A
:1027B8009BB2002B25D1039303685A6903929A6947
:1027C8000392039A1A6842F400721A6000230365A0
:1027D800DFE7019303685A6901929B690193019BA2
:1027E800D7E70023029303685A6902929A69029212
:1027F800029A1A6842F480721A60036D0133036505
:10280800C7E7438D9BB2012B1AD0438D9BB2022B95
:102818006BD00268136843F48063136003685A68D6
:1028280012F4006F03D05A6842F480525A600023B1
:102838000A9303685A690A929B690A930A9BC5E737
:1028480011F5803F16D004293DD008293BD0122C21
:1028580039D0C36A022B30D00268136823F480632E
:1028680013600023069303685A6906929B690693CE
:10287800069BABE70268136823F480631360036860
:102888005A6812F4006F0CD01A6822F480621A6039
:102898000023049303685A6904929B690493049B78
:1028A80094E7002205925A6905929A690592059A59
:1028B8001A6842F400721A6088E70268136843F4E1
:1028C80080631360CDE70268136823F480631360A4
:1028D8000023079303685A6907929A690792079A2F
:1028E8001A6842F400721A6070E7C36A022B1BD0A0
:1028F8000268136843F400631360002308930368B5
:102908005A6908929A690892089A1A6822F48062A9
:102918001A6003685A6812F4006F3FF457AF5A6898
:1029280042F480525A6051E70268136843F48063A6
:1029380013600023099303685A6909929B690993F4
:10294800099BE6E7438D9BB24BB1436A5A1C42622E
:1029580002681B781361438D013B9BB243850020BD
:102968007047438D9BB24BB103681A69436A591C7F
:1029780041621A70438D013B9BB24385002070472A
:1029880003685A6912F4806F0DD06FF480625A613F
:102998000423036400230363202280F83D2080F889
:1029A8003C300120704700207047F8B506460C46B9
:1029B80017461D461EE02DB1FFF764FC069BC01AA2
:1029C800A84217D900233363202286F83D2086F8D1
:1029D8003E3086F83C3003201AE033685B6924EA0D
:1029E80003039BB2B3FA83F35B099F420FD1B5F19E
:1029F800FF3FE0D1C4F30743012BEED033689B6956
:102A080024EA03039BB2B3FA83F35B09EDE70020E2
:102A1800F8BDF8B504460D4616461F4632E01A685A
:102A280042F400721A6023686FF480625A610423CA
:102A3800236400232363202284F83D2084F83C305B
:102A480001202DE026B1FFF71DFCC01BB04219D9AB
:102A580000232363202284F83D2084F83C3003209F
:102A68001EE023685B6925EA03039BB2003318BFA5
:102A78000123A3B123685A6912F4806FCFD1B6F14C
:102A8800FF3FDFD1C5F30743012BEAD023689B69D9
:102A980025EA03039BB2003318BF0123E9E70020AE
:102AA800F8BD0000F0B583B004460D4616461F4633
:102AB800C36A042B0DD0012B0BD013F5803F08D02F
:102AC800036B122B0AD10268136843F480731360F6
:102AD80004E02268136843F4807313600097334658
:102AE80000224FF001112046FFF75FFF58BB236912
:102AF800B3F5804F10D1236805F0FE051D613B46F4
:102B0800324615492046FFF784FF0346E0B1236C9F
:102B1800042B1ED1012317E0EB11226803F00603F2
:102B280043F0F00313613B4632460C492046FFF759
:102B380070FF20B1236C042B09D1012304E0236822
:102B4800EDB21D61DBE70323184603B0F0BD032394
:102B5800FAE70323F8E700BF0200010008000100BC
:102B68002DE9F04184B004460D4616461F46C26A58
:102B780001680B6843F480630B60042A0DD0012AB6
:102B88000BD012F5803F08D0036B112B0AD10268D5
:102B9800136843F48073136004E02268136843F4F5
:102BA800807313600097334600224FF001112046CE
:102BB800FFF7FBFE002852D12369B3F5804F12D1ED
:102BC800236845F00105EDB21D613B4632462A49AE
:102BD8002046FFF71EFF0346002841D0236C042B34
:102BE80048D101233CE04FEAE51808F006082368BD
:102BF80048F0F0021A613B46324620492046FFF76A
:102C080008FF20B1236C042B2ED1012328E0236870
:102C1800EDB21D613B46324617492046FFF7F9FEE3
:102C280020B1236C042B21D1012319E00022039247
:102C3800236859690391996903910399196841F4C3
:102C480080711960009733464FF001112046FFF755
:102C5800ACFE68B9226848F0F1031361B5E70323B5
:102C6800184604B0BDE8F0810323F9E70323F7E72A
:102C78000323F5E70323F3E702000100080001003E
:102C880070B504460D46164623685B6913F0800F3D
:102C980019D12046FFF774FEB8B9B5F1FF3FF3D05C
:102CA80025B1FFF7EFFA801BA842EDD9236C43F05A
:102CB8002003236400232363202284F83D2084F822
:102CC8003C30032000E0002070BD0120FCE770B517
:102CD80004460D46164623685B6913F0040F19D1A4
:102CE8002046FFF74DFEB8B9B5F1FF3FF3D025B147
:102CF800FFF7C8FA801BA842EDD9236C43F02003E4
:102D0800236400232363202284F83D2084F83C3088
:102D1800032000E0002070BD0120FCE770B50546E7
:102D28000C4616462B685A6912F0400F22D15A6990
:102D380012F0100F11D124B1FFF7A4FA801BA042A2
:102D4800F0D92B6C43F020032B64202385F83D3009
:102D5800002385F83C30032070BD6FF010025A61E3
:102D680000232B642B63202285F83D2085F83C3016
:102D78000120F1E70020EFE770470000002800F08D
:102D8800828010B5044690F83D30002B41D02423B2
:102D980084F83D302268136823F001031360FEF7BE
:102DA80025FD3A4BA3FB00239B0C22685360616806
:102DB800374A914232D80133226813626368344A31
:102DC800934235D85B00B0FBF3F0C0F30B03032B41
:102DD80000D804202368D861E369216A22680B437C
:102DE80013602369E16822680B4393606369A169F2
:102DF80022680B43D3602268136843F00103136011
:102E080000202064202384F83D30206384F83E00AD
:102E180010BD80F83C30FFF7AFFFB8E74FF496726B
:102E280002FB03F31B4AA2FB03239B090133C3E7FD
:102E3800A16889B903EB4302B0FBF2F2C2F30B02BB
:102E4800B2FA82F25209E2B991B903EB4303B0FB3B
:102E5800F3F040F40040BDE703EB830202EB82028B
:102E6800B0FBF2F2C2F30B02B2FA82F25209EAE7BD
:102E780003EB830303EB8303B0FBF3F040F4404020
:102E8800A8E70120A6E70120704700BF83DE1B43A7
:102E9800A0860100D34D62102DE9F04184B00446AC
:102EA8000E4690461F46FFF7EDF994F83D30DBB229
:102EB800202B04D00226304604B0BDE8F081054638
:102EC80000901923012254492046FFF76EFD00287F
:102ED80040F0998094F83C30012B00F09680012353
:102EE80084F83C3023681A6812F0010F03D11A687D
:102EF80042F001021A602268136823F40063136029
:102F0800212384F83D30102384F83E3000232364C5
:102F1800C4F824806785A3F58033E362638D238535
:102F28002B460A9A31462046FFF7BCFD064660B19B
:102F3800236C042B04D1002384F83C300126BAE723
:102F4800002384F83C300326B5E700230393236865
:102F58005A6903929B690393039B10E0236C042B2B
:102F680055D12268136843F4007313600126A2E761
:102F78002A460A992046FFF7AAFE00282BD1238D5E
:102F8800002B32D02A460A992046FFF779FE0028FE
:102F9800E4D1636A5A1C626222681B781361638DEC
:102FA800013B9BB26385238D013B9BB2238522683D
:102FB800516911F0040FDBD0002BD9D0636A591C7A
:102FC80061621B781361638D013B9BB26385238D1E
:102FD800013B2385CCE7236C042B1AD122681368A4
:102FE80043F400731360012665E72268136843F40D
:102FF80000731360202384F83D30002384F83E30AA
:1030080084F83C3057E7022655E7022653E70326A3
:1030180051E703264FE700BF020010002DE9F041F9
:1030280086B004460E4690461F46FFF72BF994F8E3
:103038003D30DBB2202B04D00226304606B0BDE876
:10304800F08105460090192301228F492046FFF799
:10305800ACFC002840F0518194F83C30012B00F082
:103068004E81012384F83C3023681A6812F0010F5E
:1030780003D11A6842F001021A602268136823F427
:1030880000631360222384F83D30102384F83E3017
:1030980000232364C4F824806785A3F58033E362A2
:1030A800638D23852B460C9A31462046FFF758FD41
:1030B800064660B1236C042B04D1002384F83C300D
:1030C8000126BAE7002384F83C300326B5E7238DB0
:1030D8005BB9029323685A6902929A690292029A2A
:1030E8001A6842F400721A607FE0012B0FD0022B9D
:1030F80021D02268136843F480631360002305938A
:1031080023685A6905929B690593059B6DE02268BF
:10311800136823F48063136072B600230393236853
:103128005A6903929A690392039A1A6842F40072E0
:103138001A6062B659E02268136843F400631360AA
:1031480072B60023049323685A6904929A69049218
:10315800049A1A6822F480621A6062B645E02A4628
:103168000C992046FFF7DAFD68B923681A69636A83
:10317800591C61621A70238D013B2385638D013BC5
:103188009BB2638531E0236C202B01D0012654E7E4
:10319800032652E700950C9B00223C492046FFF786
:1031A80004FC002840F0AD8072B62268136843F42E
:1031B8000073136023681A69636A591C61621A7084
:1031C800238D013B2385638D013B9BB2638562B6EA
:1031D80023681A69636A591C61621A70238D013B5E
:1031E8002385638D013B9BB26385238D002B7BD0A8
:1031F800032B4DD8012BB2D0022BCBD000950C9BC2
:10320800002222492046FFF7D0FB00287BD1226804
:10321800136823F48063136072B623681A69636ABB
:10322800591C61621A70238D013B2385638D013B14
:103238009BB2638500950C9B002214492046FFF73A
:10324800B4FB002861D12268136843F4007313604B
:1032580023681A69636A591C61621A70238D013BDD
:103268002385638D013B9BB2638562B623681A6927
:10327800636A591C61621A70238D013B2385638D33
:10328800013B9BB26385B0E7020010000400010017
:103298002A460C992046FFF741FDF0B923681A69C0
:1032A800636A591C61621A70238D013B2385638D03
:1032B800013B9BB2638523685A6912F0040F94D0CE
:1032C8001A69636A591C61621A70238D013B238550
:1032D800638D013B9BB2638587E7236C202B01D06C
:1032E8000126AAE60326A8E6202384F83D30002319
:1032F80084F83E3084F83C309FE602269DE602269C
:103308009BE6032699E6032697E6032695E600BF83
:1033180070477047704708B590F83D30DAB2438D72
:103328009BB273B1436A591C416201681B780B61F7
:10333800438D013B9BB24385438D9BB20BB9292A30
:1033480001D0002008BD0268536823F480635360ED
:1033580021230363282380F83D30FFF7DBFFF0E7E4
:10336800704790F83D30DAB2438D9BB2F3B110B597
:1033780003681969436A5C1C44621970438D013BF8
:103388009BB24385438D9BB20BB92A2A01D00020FA
:1033980010BD0268536823F48063536022230363DB
:1033A800282380F83D30FFF7DBFFF0E70020704767
:1033B800704708B503689A6912F0040F09D0002114
:1033C8009B6913F0800F06D0028BFFF7F1FF0020F6
:1033D80008BD0121F4E78289F7E7704708B590F83E
:1033E8003D30DBB2C26A042A01D0082A01D1282B59
:1033F80007D0212B1FD003686FF480625A61002028
:1034080008BD1A4BC3620268536823F4E063536033
:1034180003686FF480625A610268136823F480635A
:10342800136000230363202280F83D2080F83E309B
:10343800FFF7D3FFE3E70D4BC36221230363202388
:1034480080F83D30002380F83E300268536823F44A
:10345800E063536003686FF480625A61026813681E
:1034680023F480631360FFF755FFC8E70000FFFFF0
:10347800704710B590F83D30DBB290F83E20D2B2DC
:10348800C46A018D09B9212B05D0212B3CD0402AD3
:1034980038D0002010BD042C04D0082C02D014F51C
:1034A800803F19D10268536823F4E06353600268CF
:1034B800136843F40073136000230363202380F828
:1034C8003D3090F83E30DBB2402B15D0002380F819
:1034D8003E30FFF71DFFDCE70268536823F4E06322
:1034E800536011230363002380F83E30202380F8C3
:1034F8003D30FFF70DFFCCE7002380F83E30FFF7A3
:10350800B7FFC6E7222BC4D1438D9BB27BB190F89D
:103518003E30DBB2402B10D0436A5A1C426202682C
:103528001B781361438D013B9BB24385B1E7026869
:10353800536823F480635360ABE7036D9BB9C36C96
:10354800012B08D0836CC3F3072302681361036D52
:10355800013303659DE7836C0268DBB21361036D79
:103568000233036595E7036D012B17D0036D022B1A
:103578008FD190F83D30DBB2222B17D090F83D3038
:10358800DBB2212B85D1436A5A1C426202681B7840
:103598001361438D013B9BB243857AE7836C0268D4
:1035A800DBB21361036D0133036572E702681368C8
:1035B80043F4807313606CE708B5C26A90F83D3035
:1035C800DBB2212B01D0002008BD438D9BB203BB89
:1035D800042A04D0082A02D012F5803F24D10268B8
:1035E800536823F4E06353600268136843F400737C
:1035F800136000230363202380F83D3090F83E30A9
:10360800DBB2402B20D0002380F83E30FFF780FE4D
:10361800D9E7436A5A1C426202681B781361438DDA
:10362800013B9BB24385CEE70268536823F4E0630D
:10363800536011230363002380F83E30202380F871
:103648003D30FFF765FEBEE7002380F83E30FFF708
:103658000FFFB8E7704708B590F83D30DBB2222B72
:1036680001D0002008BD438D9BB2032B29D8023B13
:10367800012B31D9C36A022B47D00268136823F49F
:10368800806313600268536823F4E063536003683F
:103698001A69436A591C41621A70438D013B9BB2F7
:1036A8004385202380F83D300023036390F83E30A3
:1036B800DBB2402B2FD0002380F83E30FFF729FEE5
:1036C800CFE703681A69436A591C41621A70438D2F
:1036D800013B9BB24385C4E7C36A022B0FD0026843
:1036E800136823F4806313600268136843F400636B
:1036F80013600268536823F480635360B1E702687B
:10370800136843F480631360F3E70268136843F4B3
:1037180080631360B6E7002380F83E30FFF79AFF16
:103728009FE708B5C26A438D9BB2032B0FD0438D28
:103738009BB2022B22D003681A69436A591C416262
:103748001A70438D013B9BB24385002008BD042AB3
:1037580004D0082A02D012F5803F04D10268136809
:1037680023F48063136003681A69436A591C416231
:103778001A70438D013B9BB24385E6E7042A17D0B4
:10378800082A15D012F5803F12D0022A0AD0026802
:10379800136823F4806313600268536823F440734A
:1037A80053600FE00268136843F480631360F3E723
:1037B8000268536823F4407353600268136843F443
:1037C8000073136003681A69436A591C41621A70CE
:1037D800438D013B9BB2438503681A69436A591CB0
:1037E80041621A70438D013B9BB24385202380F8C8
:1037F8003D300023036390F83E30DBB2402B05D008
:10380800002380F83E30FFF784FD9EE7002380F810
:103818003E30FFF71FFF98E77047704710B5044622
:1038280090F83D30293B012B36D990F83D30DBB27A
:10383800602B07D003685B6813F4006F02D1202364
:1038480080F83D300023236384F83E3022681368F3
:1038580023F40063136023685A6812F4006F3ED0A3
:103868005A6822F400625A60636B93F82120012A97
:1038780018D03A4A5A63606B00F096FA00283FD095
:103888002268136823F001031360202384F83D3075
:10389800606B436B984733E000230363282380F869
:1038A8003D30D3E7A36B2D4A5A63A06B00F07CFA36
:1038B80030B323685A6912F0400F04D01A69636A5A
:1038C800591C61621A702268136823F0010313609F
:1038D800202384F83D30A06B436B984710E094F8A0
:1038E8003D20D2B2602A11D05A6912F0400F04D09C
:1038F8001A69636A591C61621A702046FFF78CFFC7
:1039080094F83D30DBB2282B17D010BD202284F864
:103918003D20002222645A6912F0400F04D01A692F
:10392800636A591C61621A702268136823F00103E4
:1039380013602046FFF771FFE2E7236C13F0040FD2
:10394800E3D0074BE36200232363202284F83D2061
:1039580084F83E302046FFF740FDD6E7B13C00082A
:103968000000FFFF10B582B090F83D30DBB201686F
:103978004A6822F4E0624A600022019202685169B2
:103988000191116841F001011160019A01680A680A
:1039980022F480620A6001684A6812F4006F14D049
:1039A80090F83D20D2B2222A0AD090F83D20D2B217
:1039B8002A2A05D0426B1268526892B2428504E006
:1039C800826B1268526892B24285428D92B2F2B10D
:1039D8004A6912F0040F08D00969426A541C44620B
:1039E8001170428D013A92B242850268516911F014
:1039F800400F08D01169426A541C44621170428D0C
:103A0800013A92B24285026C42F004020264026CEE
:103A1800A2B9282B15D02A2B13D0292B11D0026B31
:103A2800222A01D0222B17D100230363202280F8F9
:103A38003D2080F83E30FFF793FC0DE0FFF7EEFEE7
:103A48000AE0074BC36200230363202280F83D206D
:103A580080F83E30FFF7C1FC002002B010BD00BF67
:103A68000000FFFFF8B5054603689F695C695E685A
:103A780090F83E30DBB2102B25D0402B23D04C4B96
:103A8800234013B116F4007F6ED14A4B234013B183
:103A980016F4007F6BD1484B3B40002B6FD0474B4F
:103AA800234033B116F4806F03D0454B2340002BDD
:103AB80061D0434B234053B316F4007F27D02846E8
:103AC800FEF740FF23E014F0011F02D016F4007F38
:103AD8001ED13C4B234013B116F4007F1CD1344B4C
:103AE800234013B116F4007F1AD1334B3B401BB36C
:103AF800324B23402BB116F4806F02D0304B234059
:103B080093B12F4B234013B116F4007F10D1F8BDA9
:103B18002846FEF7DFFDE8E72846FEF720FEE4E743
:103B28002846FEF722FEE0E72846FFF7A2FCEEE76C
:103B38002846FFF741FDEAE7234B23402BB116F453
:103B4800806F02D01E4B234053B11D4B2340002BE6
:103B5800DDD016F4007FDAD02846FFF7E2FDD6E77D
:103B68002846FFF778FDD2E7FFF723FCCFE7284682
:103B7800FFF7F8FECBE72846FFF7CDFBC7E7124B68
:103B880023402BB116F4806F02D00D4B234053B164
:103B98000B4B2340002BBAD016F4007FB7D0284631
:103BA800FEF7DFFEB3E72846FFF7DBFBAFE700BF12
:103BB8000200010010000100040010008000010054
:103BC80004000100080001004000010070B504462F
:103BD80003685D695E68334A15420ED016F4807F2B
:103BE8000BD0026C42F0010202646FF480725A61D9
:103BF8000268136843F40043136015F4813F0AD048
:103C080016F4807F07D0236C43F0020323642368F3
:103C18006FF400725A6115F4823F1AD016F4807F4F
:103C280017D094F83E30DBB2628D91B294F83D2003
:103C3800D2B2206B202B1DD0236C43F004032364E5
:103C480094F83E30DBB2102B22D023686FF48062E8
:103C58005A6115F4843F0AD016F4807F07D0236C8C
:103C680043F00803236423686FF400625A61236CED
:103C7800A3B970BD0029DFD1212A05D0292A03D094
:103C8800282AD9D12128D7D12046FFF7A7FBE0E77A
:103C98002268136843F400731360D6E72046FFF7E1
:103CA800BDFDE6E70001010008B5406A0268136837
:103CB80023F48063136000234385426B5363826B54
:103CC800536390F83D30DBB2602B0DD0202380F891
:103CD8003D30002380F83E300268136823F001036A
:103CE8001360FFF799FD08BD202380F83D300023BD
:103CF80080F83E3003640268136823F00103136000
:103D0800FFF78BFDEFE7000000283FD010B4034613
:103D180001681F4A91422ED81E4A0A441E49A1FB37
:103D280002121209920002641C4AC263022283F83A
:103D380021201868016821F47F5121F030015A6868
:103D48009C682243DC6822431C6922435C69224345
:103D58009C692243DC6922430A430260002098627E
:103D6800D862186358639863012283F8212083F886
:103D7800200010BC70470A4A0A440749A1FB0212F6
:103D8800120992000264074AC263CFE70120704714
:103D980007040240F8FFFDBFCDCCCCCC00000240A8
:103DA800F8FBFDBF0004024008B590F82130022B53
:103DB80003D004238363012008BD0268136823F03D
:103DC8000E0313600268136823F00103136003688D
:103DD8004B4A93424ED9783A934224D014329342B4
:103DE80030D0143293422FD0143293422FD0143251
:103DF80093422FD0143293422FD0143293422FD0B3
:103E080002F5627293422ED0143293422DD01432AE
:103E180093422CD01432934202D04FF4803203E004
:103E28004FF4805200E00122364B5A60012380F89B
:103E38002130002380F82030436B002B5ED0984758
:103E48000020B9E71022EFE74FF48072ECE74FF457
:103E58008052E9E74FF48032E6E74FF48012E3E757
:103E68004FF08072E0E70122DEE71022DCE74FF432
:103E78008072D9E7244A934224D01432934225D041
:103E88001432934224D01432934224D014329342F1
:103E980024D01432934224D01432934224D002F511
:103EA8006272934223D01432934222D01432934246
:103EB80021D01432934202D04FF4803203E04FF401
:103EC800805200E00122114B5A60AFE71022FAE756
:103ED8004FF48072F7E74FF48052F4E74FF48032E2
:103EE800F1E74FF48012EEE74FF08072EBE7012222
:103EF800E9E71022E7E74FF48072E4E700205BE788
:103F08008000024000040240080002400000024015
:103F180038B5C36B1A6804682568016C04238B40A4
:103F2800134200F09B8015F0040F00F0978023687F
:103F380013F0200F03D1236823F0040323600368E0
:103F4800AA4A934246D9783A934224D014329342EB
:103F580028D01432934227D01432934227D01432F7
:103F6800934227D01432934227D01432934227D059
:103F780002F56272934226D01432934225D014324D
:103F8800934224D01432934202D04FF4802203E0AB
:103F98004FF4804200E00422954B5A60C36A03B193
:103FA800984738BD4022F7E74FF48062F4E74FF4B2
:103FB8008042F1E74FF48022EEE74FF48002EBE70E
:103FC8004FF08062E8E70422E6E74022E4E74FF496
:103FD8008062E1E7874A934224D01432934225D085
:103FE8001432934224D01432934224D01432934290
:103FF80024D01432934224D01432934224D002F5B0
:104008006272934223D01432934222D014329342E4
:1040180021D01432934202D04FF4802203E04FF4AF
:10402800804200E00422744B5A60B7E74022FAE766
:104038004FF48062F7E74FF48042F4E74FF48022B0
:10404800F1E74FF48002EEE74FF08062EBE70422DD
:10405800E9E74022E7E74FF48062E4E702238B4078
:10406800134200F0A38015F0020F00F09F80236830
:1040780013F0200F06D1236823F00A0323600123DD
:1040880080F821300368594A93424BD9783A9342D1
:1040980024D0143293422DD0143293422CD01432AF
:1040A80093422CD0143293422CD0143293422CD009
:1040B800143293422CD002F5627293422BD0143200
:1040C80093422AD01432934229D01432934202D018
:1040D8004FF4003203E04FF4005200E00222444B58
:1040E8005A60002380F82030836A002B3FF459AFD0
:1040F800984756E72022F2E74FF40072EFE74FF4B3
:104108000052ECE74FF40032E9E74FF40012E6E71B
:104118004FF00072E3E70222E1E72022DFE74FF4E5
:104128000072DCE7334A934224D01432934225D0FC
:104138001432934224D01432934224D0143293423E
:1041480024D01432934224D01432934224D002F55E
:104158006272934223D01432934222D01432934293
:1041680021D01432934202D04FF4003203E04FF4CE
:10417800005200E00222204B5A60B2E72022FAE700
:104188004FF40072F7E74FF40052F4E74FF40032AF
:10419800F1E74FF40012EEE74FF00072EBE702226E
:1041A800E9E72022E7E74FF40072E4E7082303FA7F
:1041B80001F111423FF4F5AE15F0080F3FF4F1AEEE
:1041C800236823F00E032360026CC16B012303FAFA
:1041D80002F24A60836380F82130002380F820309F
:1041E800036B002B3FF4DDAE9847DAE6800002400F
:1041F8000004024008000240000002400F4B1A6809
:1042080042F001021A6059680D4A0A405A601A6859
:1042180022F0847222F480321A601A6822F4802212
:104228001A605A6822F4FE025A604FF41F029A601C
:10423800044B4FF000629A60704700BF00100240C4
:104248000000FFF800ED00E02DE9F0418AB04A4D8A
:10425800EB6943F48003EB61EB6903F4800301939A
:10426800019B6B6943F001036B616B6903F0010308
:104278000293029B042201210E20FDF7D1FD0E209E
:10428800FDF702FE032201210F20FDF7C9FD0F20D3
:10429800FDF7FAFD394E3A4B33603A4B7360002410
:1042A800B460F4604FF4804333617461B461F461C5
:1042B80034623046FEF762FD6B6943F001036B61BF
:1042C8006B6903F001030393039BAB6943F0080395
:1042D800AB61AB6903F008030493049B4FF440639C
:1042E800069312230793012308930323099306A92E
:1042F8002548FDF701FEEB6943F48003EB61EB69A8
:1043080003F480030593059B204D214B2B606C60C3
:10431800AC604FF08008C5F80C802C616C61AC6112
:104328004FF48057EF612846FFF7EEFCB5636E62E5
:10433800184D194B2B6010236B60AC60C5F80C80CE
:104348002C616C61AC61EF612846FFF7DDFC756399
:104358006E62224621462120FDF762FD2120FDF7ED
:1043680093FD224621462220FDF75AFD2220FDF723
:104378008BFD0AB0BDE8F081001002401401002056
:1043880000580040A0860100000C0140A801002050
:1043980058000240EC010020440002402DE9F04F93
:1043A80089B07B4B9A6942F004029A619A6902F0DB
:1043B80004020192019A9A6942F008029A619A6984
:1043C80002F008020292029A9A6942F010029A6177
:1043D8009B6903F010030393039B00230593069343
:1043E800022707974FF0200A0DEB0A0444F810AD96
:1043F80021466848FDF780FD40230493214665481F
:10440800FDF77AFD8025049521466248FDF774FD85
:104418004FF48063049321465F48FDF76DFD4FF428
:104428000063049321465C48FDF766FD4FF480560F
:10443800049621465848FDF75FFD049621465748E3
:10444800FDF75AFD049721465448FDF755FD4FF0F6
:104458000108CDF814804FF00409CDF810902146DA
:104468004C48FDF749FD1026049621464B48FDF7B8
:1044780043FDCDF810A021464848FDF73DFD032334
:104488000593CDF8108021464348FDF735FDCDF85A
:10449800108021464148FDF72FFD4FF0080BCDF85D
:1044A80010B021463C48FDF727FD049721463A48BD
:1044B800FDF722FD049621463748FDF71DFDCDF88E
:1044C80010A021463448FDF717FDCDF8109021467D
:1044D8003148FDF711FDCDF810B021462F48FDF702
:1044E8000BFDCDF8109021462C48FDF705FD0597EA
:1044F8004023049321462848FDF7FEFC04952146F5
:104508002548FDF7F9FC4FF48079CDF81090214645
:104518002148FDF7F1FC049521462048FDF7ECFC05
:10452800CDF8108021461B48FDF7E6FC049721468C
:104538001848FDF7E1FCCDF8109021461748FDF723
:10454800DBFC4FF40073049321461448FDF7D4FCB8
:104558004FF48063049321461048FDF7CDFC4FF4D7
:104568000053049321460B48FDF7C6FC4FF48043E3
:10457800049321460748FDF7BFFC4FF4004304931A
:1045880021460448FDF7B8FC09B0BDE8F08F00BF2C
:1045980000100240000C01400010014000080140DA
:1045A8002DE9F04F99B0754B9A6942F400629A610F
:1045B8009A6902F400620192019A9A6942F40052DF
:1045C8009A619B6903F400530293029B6C4EDFF8D7
:1045D800B891C6F80090002474604FF02008C6F81F
:1045E80008804FF4FA6BC6F80CB034617461B4619A
:1045F8003046FDF777FA10231693179416A930461C
:10460800FDF7A6FB60230F931094119408271297C7
:10461800139414944FF40073159322460FA930464F
:10462800FDF7B2FA04220FA93046FDF7ADFA3A4673
:104638000FA93046FDF7A8FA4FF4006308934FF42A
:10464800806309930A94CDF82C800C940D940E94F1
:104658000DEB08013046FDF74FFB4A4DDFF82CA162
:10466800C5F800A06C60C5F80880C5F80CB02C61CE
:104678006C61AC612846FDF735FACDF85880802387
:10468800179316A92846FDF763FB049418A9052378
:1046980041F8543D2846FDF7B8F960230F9310946C
:1046A80011941297139414944FF40073159322469F
:1046B8000FA92846FDF768FA04220FA92846FDF736
:1046C80063FA3A460FA92846FDF75EFA4FF40063ED
:1046D80008934FF4806309930A94CDF82C800C94C6
:1046E8000D940E940DEB08012846FDF705FBDAF84A
:1046F800443023F40043CAF84430D9F8443023F452
:104708000043C9F8443021462846FDF7B9FA042188
:104718002846FDF7B5FA39462846FDF7B1FA21468D
:104728002846FDF7D7FA04212846FDF7D3FA39467B
:104738002846FDF7CFFA21463046FDF7A1FA0421B5
:104748003046FDF79DFA39463046FDF799FA21467D
:104758003046FDF7BFFA04213046FDF7BBFA39466B
:104768003046FDF7B7FA2B6801221A6332681368DE
:1047780043F00103136019B0BDE8F08F0010024048
:1047880068010020F8020020002C0140003401409C
:104798002DE9F04186B0424EB36943F40073B3612A
:1047A800B36903F400730093009B3E4C3E4B2360B7
:1047B8004FF48073A3600025E56065614FF44023E2
:1047C800E36165604FF00508C4F810802046FDF7E6
:1047D800EBFE364A536843F48023536006A94FF42E
:1047E800C02341F8043D2046FDF7DCFA0123049379
:1047F8000E220292039302A92046FDF75DFD029561
:104808000227039702A92046FDF756FD04970B27B8
:1048180002970323039302A92046FDF74DFD0C23BD
:1048280002930423039302A92046FDF745FD0723BD
:10483800049310230293CDF80C8002A92046FDF7BB
:104848003BFD2268936843F4000343F4807393604C
:10485800936843F001039360736943F00103736144
:10486800736903F001030193019B114B1D60C3F8A9
:104878000480104A9A60104ADA6040F6A2221A6050
:104888001A6842F001021A602A4629463846FDF79E
:10489800C7FA3846FDF7F8FA06B0BDE8F08100BF60
:1048A80000100240300200200024014000000140B6
:1048B800080002404C240140A4020020F0B585B055
:1048C800284B9A6942F480629A619B6903F4806379
:1048D8000093009B244C254B23604FF48073A36006
:1048E8000023E36063614FF46022E26163600526A0
:1048F80026612046FDF758FE012303930F220192FB
:10490800029301A92046FDF7D7FC0D230193022548
:10491800029501A92046FDF7CFFC03950A230193D0
:104928000327029701A92046FDF7C6FC0195042339
:1049380002930DEB03012046FDF7BEFC072303930A
:104948000197029601A92046FDF7B6FC23689A68EC
:1049580042F480729A609A6842F001029A6005B047
:10496800F0BD00BF00100240E40000200028014014
:1049780070B582B0104CF0232370552363700F4D2F
:104988006426009602232246A4212846FEF784FACC
:104998000A20FDF77DFCFB2323700023637000963B
:1049A80002232246A4212846FEF776FA0A20FDF7BC
:1049B8006FFC02B070BD00BF780300201401002016
:1049C80030B583B0124A00231370124C6425009549
:1049D8000123A4212046FEF75FFA0520FDF758FCC5
:1049E800009506230C4AA4212046FEF717FB10B9B0
:1049F8000A4B00221A60094B1B68032B01D803B02D
:104A080030BD3220FDF744FCFFF7B2FFF7E700BFE7
:104A1800780300201401002060000020040000201A
:104A28000D4B1B681333262B14D810B500240B4BE1
:104A38001C700B4B1C7005E00A4B1C706420FDF7C2
:104A480027FC0134072CF7DD002220210648FDF75A
:104A580052FBFEE7704700BF440400206C000020B2
:104A680078000020680000200008014030B597B0A9
:104A780002250C95012310931023119313950024FC
:104A880014944FF4601315930CA8FCF7C7FB0F237D
:104A98000793089509944FF480630A930B94294669
:104AA80007A8FCF7E1FD01954FF44043039301A8E3
:104AB800FDF72CFBFCF794FE084BA3FB00308009A4
:104AC800FDF7EEF90420FDF701FA224621464FF0E2
:104AD800FF30FDF7A5F917B030BD00BFD34D621008
:104AE8002DE9F04F8BB0FDF7B3FBCB4CA36943F036
:104AF8000103A361A36903F001030593059B032048
:104B0800FDF77CF9002211466FF00B00FDF788F9DC
:104B1800002211466FF00A00FDF782F900221146C3
:104B28006FF00900FDF77CF9002211466FF00400D0
:104B3800FDF776F9002211466FF00300FDF770F9D2
:104B4800002211466FF00100FDF76AF900221146B4
:104B58004FF0FF30FDF764F9FFF788FF636923F032
:104B680001036361FFF71AFCFFF71AFDFFF710FE58
:104B7800FFF7A4FE01222021A848FDF7BCFAA848A7
:104B8800FDF776FCA748FDF773FC082405E0A64B63
:104B98001C706420FDF77CFB013C002CF7DA002533
:104BA800A14B1D7001220421A048FDF7A4FAFFF7CC
:104BB8004BFBFFF7DDFE9E4B86221A609D4B802241
:104BC8001A60FFF741FB3220FDF762FB9A4C202365
:104BD80084F84030052767645422984904F1480056
:104BE80001F060FA0126267084F83C50944B0DF1D0
:104BF800200993E8030089E803000DF11808083339
:104C080093E8030088E80300204601F0FFF83246E5
:104C18004946204601F094F902224146204601F017
:104C28008FF9204601F046F83846FDF731FB2A4651
:104C38002946204601F01DF88249204601F023F854
:104C480032462946204601F014F87F49204601F0F3
:104C58001AF84FF47A70FDF71BFB204601F02AF88A
:104C68003846FDF715FB2A462946204601F001F88B
:104C78007649204601F007F84FF4FA70FDF708FB73
:104C880032462946204600F0F4FF0CE06A4C2046E4
:104C980000F085FF0121204600F0BEFF3220FDF71D
:104CA800F7FA0135EDB20F2DF0D9C820FDF7F0FA6B
:104CB800614800F0FFFF0520FDF7EAFA644B188A07
:104CC800FCF752F80390634B01221A704FF0000B67
:104CD800DA465FE14FF47A7872E14FF47A7480E152
:104CE8004FF47A7642464B4620462946FBF79EFA11
:104CF80004460D460022584BFBF7DEFE80B944A35C
:104D0800D3E9002320462946FBF7B8FE002874D1D2
:104D180020462946FBF7DAFE054603E04F4EE1E759
:104D28004FF47A75444C00221146204600F0A1FF4A
:104D38004B4F87FB0530EB17C3EB6010FBF7C2FB4B
:104D48004FF00008CDF8008002460B46204600F0E0
:104D5800E7FF4449204600F096FF87FB0637F01727
:104D6800C0EB6710FBF7AEFBCDF8008002460B46A0
:104D7800204600F0D5FF3C493C4B1868FBF742FF42
:104D8800FBF7B2FB00223A4BFBF706FC0022394B3B
:104D9800FBF72CFDFBF7E2FE04463749FCF7F8F970
:104DA80000B1354C00212046FCF7D4F938BB324914
:104DB8002046FCF7CFF920B300220C211E4800F052
:104DC80058FF1D4F384600F0EAFE0221384600F031
:104DD80023FF2046FBF788FB0024009402460B467D
:104DE800384600F09DFF2549384600F04CFF012267
:104DF8002146384600F03DFF4BE0184D92E700246D
:104E0800D5E700220B210C4800F033FFD9E700BF9B
:104E18000000000000408FC0001002400008014060
:104E280030020020E400002068000020000C01404F
:104E38003C0400207C030020800300201401002093
:104E4800F060000818610008246100083461000857
:104E5800A40200207800002000408F4018FCFFFFCB
:104E68001F85EB514461000800000C420800002037
:104E78000000594000001C400000C842486100087A
:104E88009B4F384600F08BFE0121384600F0C4FEE7
:104E98000134984B1B68002BB8BF5B42964A82FBD3
:104EA80003121A44D917C1EB6212A24201D3142B80
:104EB800E6DC0AF13203AB4214DDAAF1320AAA4554
:104EC80010DA0BF13203B3420CDDABF1320BB34510
:104ED80008DA8A4B1B68042B04D8894B1E606B4286
:104EE800884A1360884B1A68884BA3FB0213DB08B7
:104EF80003EB830303EB83039A4200F0338102211F
:104F08008348FDF7F1F838B1824B1B6823B9824B0F
:104F18001B68002B00F07781804B1C688049204675
:104F2800FCF718F928B1734B1B681333262B40F292
:104F380076817C492046FCF70DF930B17849204646
:104F4800FCF726F9002840F06D810023764A13709B
:104F5800764A137085EAE573A3EBE573322B06DC1A
:104F680086EAE673A3EBE673322B40F37B81704B42
:104F780000221A606E4B1A686E4B9A4200F27781D3
:104F8800614A1368013313605C4A13680133136084
:104F9800AA46B3460520FDF77BF9FFF711FD664BDE
:104FA80093F80080654B1B78A8EB03084FEAC80804
:104FB800B8F57A7F3FF78EAE614B9845B8BF9846F3
:104FC800604BC3F800805C4B5C785F4B1B78E41A3D
:104FD800E400B4F57A7F3FF780AE594B9C42B8BFE6
:104FE8001C465A4B1C60544B5B7903F00101584A2C
:104FF8001170C3F34003574A1370574D2868FBF7E5
:1050080061FA33A3D3E90023FBF7C6FA06460F4635
:105018004046FBF757FA30A3D3E90023FBF7BCFA65
:1050280002460B4630463946FBF700F9FBF74EFDC2
:10503800064628602F4D2868FBF744FA24A3D3E9D5
:105048000023FBF7A9FA804689462046FBF73AFA7F
:1050580021A3D3E90023FBF79FFA02460B464046FB
:105068004946FBF7E3F8FBF731FD2860FBF72AFA1E
:1050780000223A4BFBF790FA04460D463046FBF700
:1050880021FA17A3D3E90023FBF786FA804689465D
:1050980002460B4620462946FBF7C6F806460F4649
:1050A80000222F4BFBF708FD00287FF419AE0EA352
:1050B800D3E9002330463946FBF7E0FC00287FF4AB
:1050C8002DAE30463946FBF701FD06460AE600BF1D
:1050D800CDCCCCCCCCCCEC3F9A9999999999B93F45
:1050E800333333333333D33F0000000000408FC0E5
:1050F8008003002044040020430821840400002089
:105108008C00002088000020240400201F85EB511B
:1051180000080140940000209000002008000020B2
:10512800CCCC064200000C42680000206C00002035
:105138002804002080380100600000203C04002082
:1051480018FCFFFF4C0400207C03002034040020DE
:105158004804002030040020380400200000E03F0C
:1051680000408F400398FBF7BFF943A3D3E900231E
:10517800FBF712FA80468946434C208AFBF7F4FD78
:10518800FBF7B2F93EA3D3E90023FBF705FA024681
:105198000B4640464946FBF749F8FBF7DFFC8046DB
:1051A80003903A49FBF72EFD3949FBF735FE39499B
:1051B800FBF72AFD07463146022000F0F3FE294698
:1051C800032000F0EFFEA189042000F0EBFE324935
:1051D800324B1868FBF720FEFBF7E4FF0146052079
:1051E80000F0E0FE4046FBF7DDFF0146062000F038
:1051F800D9FE3846FBF7D6FF0146072000F0D2FE5D
:1052080000F0D6FE7BE6264B00221A7002212548C4
:10521800FCF76AFF0028F9D1FFF702FC7CE6FFF7EC
:10522800FFFB97E6204C204600F044FD0520FDF7E3
:105238002FF800221146204600F01BFD1B4920468E
:1052480000F021FD01220021204600F012FD18493E
:10525800204600F018FD174B05221A70164B06223F
:105268001A7077E6154A13680133136082E6FFF770
:10527800D7FB85E6AFF30080AE47E17A14AEEF3F87
:105288007B14AE47E17A843FA402002000E0CE44BC
:10529800083748BE33330F420000C84208000020D8
:1052A8007800002000080140800300204C610008BD
:1052B80060610008680000206C00002028040020BD
:1052C800774B02225A60774B1B68B3F57A7F5EDB17
:1052D8002DE9F041744B1A68744BA3FB02139B0928
:1052E8004FF47A7101FB13230BBB714C2068FBF759
:1052F800FBF865A3D3E90023FBF74EF906460F46F2
:105308006C4B9889FBF730FD6B49FBF785FDFBF784
:10531800EBF85FA3D3E90023FBF73EF902460B46FF
:1053280030463946FAF782FFFBF718FC2060614BDC
:105338005889624B1C68001BFBF7C4F856A3D3E9D5
:105348000023FBF729F900220023FBF797FB00282D
:1053580052D1584B5889001BFBF7B4F84EA3D3E938
:105368000023FBF719F90022554BFBF7A5FB002892
:1053780052D1544B1B68052B4ED8534B1B78002B2E
:105388004AD0524A536C43F40043536449E0013312
:10539800444A1360474A90884D490B68034403EB1D
:1053A800D3735B100B60D0884A490B68034403EB46
:1053B800D3735B100B60108847490B68034403EBF9
:1053C800D3735B100B60508844490B68034403EBAC
:1053D800D3735B100B60508938490B68034403EBA7
:1053E800D3735B100B6011893D4A13680B4403EBC0
:1053F800D3735B10136070472E4B5889001BFBF763
:1054080061F825A3D3E90023FBF7C6F80022354B42
:10541800FBF734FB0028ACD02C4A536C23F4004330
:105428005364244B18892E4B1C68001BFBF74AF861
:1054380019A3D3E90023FBF7AFF800220023FBF7F9
:105448001DFB002852D11B4B1889001BFBF73AF8AB
:1054580011A3D3E90023FBF79FF80022184BFBF7B1
:105468002BFB002852D1174B1B68052B4ED8164B27
:105478001B78002B4AD01C4A536C43F400435364F6
:1054880049E000BFAFF30080AE47E17A14AEEF3FCA
:105498007B14AE47E17A843F7B14AE47E17A943FB0
:1054A800000002407C00002070000020D34D6210F4
:1054B80008000020A402002047CDD73C0C000020A3
:1054C80000002E4004000020780000200034014035
:1054D80014000020180000201C00002020000020DC
:1054E8001000002000002EC0002C0140904B1889AD
:1054F800001BFAF7E7FF8CA3D3E90023FBF74CF86E
:1055080000228C4BFBF7BAFA0028ACD08A4A536CBD
:1055180023F40043536489498B6813F0200F0CBFB0
:10552800012300238A6812F0400F0CBF01220022D9
:10553800896811F0800F0CBF012500258049886813
:1055480010F4806F0CBF012000208C6814F4006FE9
:105558000CBF01240024896811F4805F02EB450226
:1055680003EB4203774EF35C77490B600B6803F15A
:1055780002030B600D68754B83FB0572A2EBE572A5
:1055880002EB42024FEA4207A5EB07020A600CBF92
:1055980002220022224400EB4202B05C6C4A1060F6
:1055A800106802301060106883FB0043A3EBE073BF
:1055B80003EB43035C00031B136009685C488388A2
:1055C800644A12689A1AC388634800681B1A052936
:1055D80034D8DFE801F0032326292C2FD31A5F4A99
:1055E80013605F4A1368013313605E4A14684CB352
:1055F8005D4AA2FB0312120B5C4909680131B2FB38
:10560800F1F001FB1022EAB9B3FBF4F204FB123308
:10561800EBB910215648FCF774FD18E04F4B1A609F
:10562800DFE74E4B1A60DCE74C4A1360D9E74B4A78
:105638001360D6E79B1A494A1360D2E7474B00220A
:105648001A60CEE7002210214948FCF754FD494B67
:10565800D3F800C03C4B1B68052B2BD8DFE803F0C0
:105668000312171C2226CCF1000064469C46424BCC
:105678001968374B1B68052B52D8DFE803F01F3F2A
:1056880043474B4E6446CCF1000C0020EFE76046E0
:10569800CCF1000C0024EAE7CCF1000460464FF09E
:1056A800000CE4E7CCF100040020E0E7CCF10000B6
:1056B8000024DCE7002004468446D8E74E420F4623
:1056C80019462C4B1B68002B40F398802B4B1D6808
:1056D8001D4B1B6805331D4A82FB03E2A2EBE372F4
:1056E80002EB42024FEA420EA3EB0E02052A00F239
:1056F800B980DFE802F0456A6F74797E0F46494247
:105708000026DEE70E4649420027DAE74F420E46FA
:105718000021D6E74F420026D3E74E420027D0E7C4
:10572800002637463146CCE77B14AE47E17A943FF2
:10573800A402002000002EC0002C0140000C0140F3
:10574800001001407461000880000020ABAAAA2A5A
:10575800840000201400002018000020740000209D
:1057680070000020680000205917B7D16C00002095
:1057780000080140880000208C00002090000020D4
:10578800C5F10008AE461546654474444044964B3E
:105798001B68002B40F3D780944B1B68944A12680F
:1057A80002F1050C934A82FB0CE2A2EBEC7202EBCD
:1057B80042024FEA420EACEB0E02052A00F2F980D3
:1057C800DFE802F058A8ADB2B7BCAE466D424FF064
:1057D8000008D9E7A8466D424FF0000ED4E7C5F19E
:1057E800000EA8460025CFE7C5F1000E4FF00008CF
:1057F800CAE7C5F100084FF0000EC5E77E4B1D68EB
:10580800C5F1000E7D4B1A6801327A4B83FB028387
:10581800A3EBE27303EB43034FEA4308A2EB08034D
:10582800052B1AD8DFE803F00323060A0E14A8464E
:105838001D46A9E7F0464FF0000EA5E7F046AE4634
:105848000025A1E72B4675469E464FF000089BE7CA
:10585800A84675464FF0000E96E74FF00008C6467A
:10586800454691E74FF00008C64645468CE74FF09D
:10587800000889E7C3F100089E461346194407EB60
:105888000E0206EB080305F57A7540F2C676B542B6
:1058980000F397800A2DB8BF0A25594E756304F5A1
:1058A8007A7440F2C675AC4200F38E800A2CB8BFF9
:1058B8000A24534DAC6300F57A7040F2C674A042D6
:1058C80000F385800A28B8BF0A204D4CE06301F533
:1058D8007A7140F2C67081427CDC0A29B8BF0A217D
:1058E8004848416302F57A7240F2C6718A4274DC14
:1058F8000A2AB8BF0A2243498A6303F57A7340F239
:10590800C67293426CDC0A2BB8BF0A233D4AD363A4
:10591800BDE8F0819E465B424FF00008AEE798462E
:105928005B424FF0000EA9E7C3F1000E9846002332
:10593800A4E7C3F1000E4FF000089FE7C3F1000889
:105948004FF0000E9AE7294B1B68C3F1000E284A56
:1059580012680132DFF89CC08CFB028CACEBE27C55
:105968000CEB4C0C4FEA4C08A2EB080CBCF1050FF1
:105978001AD8DFE80CF00323060A0E14984663468B
:105988007CE7F0464FF0000E78E7F0469E4600238D
:1059980074E71A46734696464FF000086EE7984635
:1059A80073464FF0000E69E74FF00008C6464346BD
:1059B80064E74FF00008C64643465FE74FF000082B
:1059C8005CE740F2C67568E740F2C67471E740F2DA
:1059D800C6707AE740F2C67182E740F2C6728AE77B
:1059E80040F2C67392E700BF8C00002094000020AC
:1059F80084000020ABAAAA2A900000208000002082
:105A080000340140002C014008B5084B1B780BB14D
:105A1800012008BD90F83410403000F0ABFA18B1FE
:105A28000120024B1870F4E70020F2E798000020EC
:105A380008B571B9836B53F82220012303FA02F2E7
:105A480090F8343023EA020380F83430FFF7DCFFA3
:105A580008BD836B53F82220012303FA02F290F861
:105A68003430134380F83430F0E708B5072201F0EA
:105A78000101FFF7DDFF08BD08B511F0010F34D0B3
:105A8800836B1A68012303FA02F290F83430134347
:105A980080F8343011F0020F33D0836B5A68012339
:105AA80003FA02F290F83430134380F8343011F0DE
:105AB800040F32D0836B9A68012303FA02F290F83C
:105AC8003430134380F8343011F0080F31D1836B30
